{
  "contractName": "GreyhoundRacing",
  "abi": [
    {
      "constant": true,
      "inputs": [
        {
          "name": "",
          "type": "uint256"
        }
      ],
      "name": "bets",
      "outputs": [
        {
          "name": "player",
          "type": "address"
        },
        {
          "name": "bet_place",
          "type": "uint8"
        },
        {
          "name": "bet_amount",
          "type": "uint256"
        },
        {
          "name": "result_place",
          "type": "uint8"
        },
        {
          "name": "win_amount",
          "type": "uint256"
        },
        {
          "name": "time",
          "type": "uint256"
        }
      ],
      "payable": false,
      "stateMutability": "view",
      "type": "function"
    },
    {
      "constant": true,
      "inputs": [],
      "name": "gameMinBet",
      "outputs": [
        {
          "name": "",
          "type": "uint256"
        }
      ],
      "payable": false,
      "stateMutability": "view",
      "type": "function"
    },
    {
      "constant": true,
      "inputs": [
        {
          "name": "",
          "type": "uint8"
        }
      ],
      "name": "placeBets",
      "outputs": [
        {
          "name": "winProbability",
          "type": "uint8"
        },
        {
          "name": "prizeRate",
          "type": "uint8"
        }
      ],
      "payable": false,
      "stateMutability": "view",
      "type": "function"
    },
    {
      "constant": false,
      "inputs": [],
      "name": "renounceOwnership",
      "outputs": [],
      "payable": false,
      "stateMutability": "nonpayable",
      "type": "function"
    },
    {
      "constant": true,
      "inputs": [],
      "name": "owner",
      "outputs": [
        {
          "name": "",
          "type": "address"
        }
      ],
      "payable": false,
      "stateMutability": "view",
      "type": "function"
    },
    {
      "constant": true,
      "inputs": [],
      "name": "isOwner",
      "outputs": [
        {
          "name": "",
          "type": "bool"
        }
      ],
      "payable": false,
      "stateMutability": "view",
      "type": "function"
    },
    {
      "constant": true,
      "inputs": [],
      "name": "gameMaxBet",
      "outputs": [
        {
          "name": "",
          "type": "uint256"
        }
      ],
      "payable": false,
      "stateMutability": "view",
      "type": "function"
    },
    {
      "constant": true,
      "inputs": [],
      "name": "currentBet",
      "outputs": [
        {
          "name": "",
          "type": "uint256"
        }
      ],
      "payable": false,
      "stateMutability": "view",
      "type": "function"
    },
    {
      "constant": true,
      "inputs": [],
      "name": "totalPlace",
      "outputs": [
        {
          "name": "",
          "type": "uint256"
        }
      ],
      "payable": false,
      "stateMutability": "view",
      "type": "function"
    },
    {
      "constant": false,
      "inputs": [
        {
          "name": "newOwner",
          "type": "address"
        }
      ],
      "name": "transferOwnership",
      "outputs": [],
      "payable": false,
      "stateMutability": "nonpayable",
      "type": "function"
    },
    {
      "inputs": [],
      "payable": false,
      "stateMutability": "nonpayable",
      "type": "constructor"
    },
    {
      "payable": true,
      "stateMutability": "payable",
      "type": "fallback"
    },
    {
      "anonymous": false,
      "inputs": [
        {
          "indexed": true,
          "name": "player",
          "type": "address"
        },
        {
          "indexed": false,
          "name": "bet_place",
          "type": "uint8"
        },
        {
          "indexed": false,
          "name": "bet_amount",
          "type": "uint256"
        },
        {
          "indexed": false,
          "name": "result_place",
          "type": "uint8"
        },
        {
          "indexed": false,
          "name": "win_amount",
          "type": "uint256"
        },
        {
          "indexed": false,
          "name": "id",
          "type": "uint256"
        }
      ],
      "name": "UserBet",
      "type": "event"
    },
    {
      "anonymous": false,
      "inputs": [
        {
          "indexed": true,
          "name": "previousOwner",
          "type": "address"
        },
        {
          "indexed": true,
          "name": "newOwner",
          "type": "address"
        }
      ],
      "name": "OwnershipTransferred",
      "type": "event"
    },
    {
      "constant": false,
      "inputs": [
        {
          "name": "win",
          "type": "uint8[]"
        },
        {
          "name": "prize",
          "type": "uint8[]"
        }
      ],
      "name": "setPlaceBets",
      "outputs": [
        {
          "name": "",
          "type": "uint256"
        }
      ],
      "payable": false,
      "stateMutability": "nonpayable",
      "type": "function"
    },
    {
      "constant": true,
      "inputs": [],
      "name": "getMaxPrizeRate",
      "outputs": [
        {
          "name": "",
          "type": "uint8"
        }
      ],
      "payable": false,
      "stateMutability": "view",
      "type": "function"
    },
    {
      "constant": false,
      "inputs": [
        {
          "name": "betPlace",
          "type": "uint8"
        },
        {
          "name": "amount",
          "type": "uint256"
        }
      ],
      "name": "userBet",
      "outputs": [
        {
          "name": "",
          "type": "uint8"
        }
      ],
      "payable": true,
      "stateMutability": "payable",
      "type": "function"
    },
    {
      "constant": true,
      "inputs": [],
      "name": "getRandomFactor",
      "outputs": [
        {
          "name": "",
          "type": "uint256"
        }
      ],
      "payable": false,
      "stateMutability": "view",
      "type": "function"
    },
    {
      "constant": false,
      "inputs": [
        {
          "name": "num",
          "type": "uint256"
        }
      ],
      "name": "setRandomFactor",
      "outputs": [],
      "payable": false,
      "stateMutability": "nonpayable",
      "type": "function"
    },
    {
      "constant": true,
      "inputs": [],
      "name": "getTotalUserBets",
      "outputs": [
        {
          "name": "",
          "type": "uint256"
        }
      ],
      "payable": false,
      "stateMutability": "view",
      "type": "function"
    },
    {
      "constant": true,
      "inputs": [],
      "name": "getTotalUserWin",
      "outputs": [
        {
          "name": "",
          "type": "uint256"
        }
      ],
      "payable": false,
      "stateMutability": "view",
      "type": "function"
    },
    {
      "constant": false,
      "inputs": [
        {
          "name": "num",
          "type": "uint256"
        }
      ],
      "name": "setGameMaxBet",
      "outputs": [],
      "payable": false,
      "stateMutability": "nonpayable",
      "type": "function"
    },
    {
      "constant": false,
      "inputs": [
        {
          "name": "num",
          "type": "uint256"
        }
      ],
      "name": "setGameMinBet",
      "outputs": [],
      "payable": false,
      "stateMutability": "nonpayable",
      "type": "function"
    },
    {
      "constant": false,
      "inputs": [
        {
          "name": "amount",
          "type": "uint256"
        }
      ],
      "name": "withdraw",
      "outputs": [],
      "payable": false,
      "stateMutability": "nonpayable",
      "type": "function"
    }
  ],
  "bytecode": "0x608060405234801561001057600080fd5b50336000806101000a81548173ffffffffffffffffffffffffffffffffffffffff021916908373ffffffffffffffffffffffffffffffffffffffff1602179055506000809054906101000a900473ffffffffffffffffffffffffffffffffffffffff1673ffffffffffffffffffffffffffffffffffffffff16600073ffffffffffffffffffffffffffffffffffffffff167f8be0079c531659141344cd1fd0a4f28419497f9722a3daafe3b4186f6b6457e060405160405180910390a36100ee600a426103ec640100000000026113c4179091906401000000009004565b6003819055506377359400600781905550620f424060088190555060066009819055506040805190810160405280601860ff168152602001600f60ff1681525060016000600160ff16815260200190815260200160002060008201518160000160006101000a81548160ff021916908360ff16021790555060208201518160000160016101000a81548160ff021916908360ff1602179055509050506040805190810160405280601660ff168152602001601260ff1681525060016000600260ff16815260200190815260200160002060008201518160000160006101000a81548160ff021916908360ff16021790555060208201518160000160016101000a81548160ff021916908360ff1602179055509050506040805190810160405280601260ff168152602001601460ff1681525060016000600360ff16815260200190815260200160002060008201518160000160006101000a81548160ff021916908360ff16021790555060208201518160000160016101000a81548160ff021916908360ff1602179055509050506040805190810160405280601060ff168152602001601660ff1681525060016000600460ff16815260200190815260200160002060008201518160000160006101000a81548160ff021916908360ff16021790555060208201518160000160016101000a81548160ff021916908360ff1602179055509050506040805190810160405280600c60ff168152602001601960ff1681525060016000600560ff16815260200190815260200160002060008201518160000160006101000a81548160ff021916908360ff16021790555060208201518160000160016101000a81548160ff021916908360ff1602179055509050506040805190810160405280600860ff168152602001601e60ff1681525060016000600660ff16815260200190815260200160002060008201518160000160006101000a81548160ff021916908360ff16021790555060208201518160000160016101000a81548160ff021916908360ff160217905550905050610411565b60008082141515156103fd57600080fd5b818381151561040857fe5b06905092915050565b61150f806104206000396000f300608060405260043610610112576000357c0100000000000000000000000000000000000000000000000000000000900463ffffffff16806322af00fa1461011457806328a5190c146101b05780632e1a7d4d146101db57806338766a6c146102085780633bea3da21461023357806359b63f6c146102645780635ec24f2014610291578063715018a6146102e857806381e57416146102ff578063831bc058146103465780638da5cb5b146103715780638f32d59b146103c85780639c969909146103f7578063a478ef9014610422578063baf342e2146104df578063bbf715661461050c578063d504cb6514610537578063d6b650df14610562578063eaf5a7df1461058d578063f2fde38b146105ba575b005b34801561012057600080fd5b5061013f600480360381019080803590602001909291905050506105fd565b604051808773ffffffffffffffffffffffffffffffffffffffff1673ffffffffffffffffffffffffffffffffffffffff1681526020018660ff1660ff1681526020018581526020018460ff1660ff168152602001838152602001828152602001965050505050505060405180910390f35b3480156101bc57600080fd5b506101c5610673565b6040518082815260200191505060405180910390f35b3480156101e757600080fd5b5061020660048036038101908080359060200190929190505050610690565b005b34801561021457600080fd5b5061021d61071a565b6040518082815260200191505060405180910390f35b34801561023f57600080fd5b50610248610720565b604051808260ff1660ff16815260200191505060405180910390f35b34801561027057600080fd5b5061028f600480360381019080803590602001909291905050506107b4565b005b34801561029d57600080fd5b506102bf600480360381019080803560ff1690602001909291905050506107d1565b604051808360ff1660ff1681526020018260ff1660ff1681526020019250505060405180910390f35b3480156102f457600080fd5b506102fd61080f565b005b61032a600480360381019080803560ff169060200190929190803590602001909291905050506108e1565b604051808260ff1660ff16815260200191505060405180910390f35b34801561035257600080fd5b5061035b610eff565b6040518082815260200191505060405180910390f35b34801561037d57600080fd5b50610386610f1c565b604051808273ffffffffffffffffffffffffffffffffffffffff1673ffffffffffffffffffffffffffffffffffffffff16815260200191505060405180910390f35b3480156103d457600080fd5b506103dd610f45565b604051808215151515815260200191505060405180910390f35b34801561040357600080fd5b5061040c610f9c565b6040518082815260200191505060405180910390f35b34801561042e57600080fd5b506104c96004803603810190808035906020019082018035906020019080806020026020016040519081016040528093929190818152602001838360200280828437820191505050505050919291929080359060200190820180359060200190808060200260200160405190810160405280939291908181526020018383602002808284378201915050505050509192919290505050610fb9565b6040518082815260200191505060405180910390f35b3480156104eb57600080fd5b5061050a600480360381019080803590602001909291905050506112a7565b005b34801561051857600080fd5b506105216112c4565b6040518082815260200191505060405180910390f35b34801561054357600080fd5b5061054c6112ca565b6040518082815260200191505060405180910390f35b34801561056e57600080fd5b506105776112d0565b6040518082815260200191505060405180910390f35b34801561059957600080fd5b506105b8600480360381019080803590602001909291905050506112d6565b005b3480156105c657600080fd5b506105fb600480360381019080803573ffffffffffffffffffffffffffffffffffffffff1690602001909291905050506112f3565b005b60026020528060005260406000206000915090508060000160009054906101000a900473ffffffffffffffffffffffffffffffffffffffff16908060000160149054906101000a900460ff16908060010154908060020160009054906101000a900460ff16908060030154908060040154905086565b600061067d610f45565b151561068857600080fd5b600354905090565b610698610f45565b15156106a357600080fd5b3073ffffffffffffffffffffffffffffffffffffffff163181111515156106c957600080fd5b6106d1610f1c565b73ffffffffffffffffffffffffffffffffffffffff166108fc829081150290604051600060405180830381858888f19350505050158015610716573d6000803e3d6000fd5b5050565b60085481565b6000806000809150600190505b6009548160ff161115156107ac578160ff16600160008360ff1660ff16815260200190815260200160002060000160019054906101000a900460ff1660ff16111561079f57600160008260ff1660ff16815260200190815260200160002060000160019054906101000a900460ff1691505b808060010191505061072d565b819250505090565b6107bc610f45565b15156107c757600080fd5b8060088190555050565b60016020528060005260406000206000915090508060000160009054906101000a900460ff16908060000160019054906101000a900460ff16905082565b610817610f45565b151561082257600080fd5b600073ffffffffffffffffffffffffffffffffffffffff166000809054906101000a900473ffffffffffffffffffffffffffffffffffffffff1673ffffffffffffffffffffffffffffffffffffffff167f8be0079c531659141344cd1fd0a4f28419497f9722a3daafe3b4186f6b6457e060405160405180910390a360008060006101000a81548173ffffffffffffffffffffffffffffffffffffffff021916908373ffffffffffffffffffffffffffffffffffffffff160217905550565b600080600080600080600080600089341015610965576040517f08c379a000000000000000000000000000000000000000000000000000000000815260040180806020018281038252601c8152602001807f596f75206e6f7420656e6f756768205452582070726f76696465642e0000000081525060200191505060405180910390fd5b6008548a1015610a03576040517f08c379a00000000000000000000000000000000000000000000000000000000081526004018080602001828103825260398152602001807f596f7520706c616365207468652062657420616d6f756e7420736d616c6c657281526020017f207468616e20746865206d696e696d756d20616d6f756e742e0000000000000081525060400191505060405180910390fd5b6007548a1115610aa1576040517f08c379a00000000000000000000000000000000000000000000000000000000081526004018080602001828103825260378152602001807f596f7520736574207468652062657420616d6f756e742067726561746572207481526020017f68616e20746865206d6178696d756d20616d6f756e742e00000000000000000081525060400191505060405180910390fd5b3073ffffffffffffffffffffffffffffffffffffffff1631610ae9600a610adb610ac9610720565b60ff168e61131290919063ffffffff16565b61135090919063ffffffff16565b1115610b83576040517f08c379a00000000000000000000000000000000000000000000000000000000081526004018080602001828103825260268152602001807f5468697320636f6e7472616374206e6f7420656e6f756768205452582070726f81526020017f76696465642e000000000000000000000000000000000000000000000000000081525060400191505060405180910390fd5b610b988a60045461137a90919063ffffffff16565b600481905550610ba661139b565b9750610be3610bd26001610bc4600a8c6113c490919063ffffffff16565b61137a90919063ffffffff16565b60035461137a90919063ffffffff16565b600381905550610bfd6064896113c490919063ffffffff16565b9650600095506000945060009350600192505b6009548360ff16111515610c8b57610c5d600160008560ff1660ff16815260200190815260200160002060000160009054906101000a900460ff1660ff168561137a90919063ffffffff16565b9350848710158015610c6e57508387105b15610c7b57829550610c8b565b8394508280600101935050610c10565b600091508a60ff168660ff161415610d5457610cef600a610ce1600160008a60ff1660ff16815260200190815260200160002060000160019054906101000a900460ff1660ff168d61131290919063ffffffff16565b61135090919063ffffffff16565b9150610d068260055461137a90919063ffffffff16565b6005819055503373ffffffffffffffffffffffffffffffffffffffff166108fc839081150290604051600060405180830381858888f19350505050158015610d52573d6000803e3d6000fd5b505b60c0604051908101604052803373ffffffffffffffffffffffffffffffffffffffff1681526020018c60ff1681526020018b81526020018760ff1681526020018381526020014281525060026000600654815260200190815260200160002060008201518160000160006101000a81548173ffffffffffffffffffffffffffffffffffffffff021916908373ffffffffffffffffffffffffffffffffffffffff16021790555060208201518160000160146101000a81548160ff021916908360ff1602179055506040820151816001015560608201518160020160006101000a81548160ff021916908360ff1602179055506080820151816003015560a0820151816004015590505060065490503373ffffffffffffffffffffffffffffffffffffffff167fde3855af05c0968e40b3e62853e65a5ed2832cf642af9d378ffa6b5a78adf9848c8c898686604051808660ff1660ff1681526020018581526020018460ff1660ff1681526020018381526020018281526020019550505050505060405180910390a2600660008154809291906001019190505550859850505050505050505092915050565b6000610f09610f45565b1515610f1457600080fd5b600554905090565b60008060009054906101000a900473ffffffffffffffffffffffffffffffffffffffff16905090565b60008060009054906101000a900473ffffffffffffffffffffffffffffffffffffffff1673ffffffffffffffffffffffffffffffffffffffff163373ffffffffffffffffffffffffffffffffffffffff1614905090565b6000610fa6610f45565b1515610fb157600080fd5b600454905090565b6000806000610fc6610f45565b1515610fd157600080fd5b845160098190555083518551141515611078576040517f08c379a00000000000000000000000000000000000000000000000000000000081526004018080602001828103825260218152602001807f4572726f722077696e2e6c656e67746820213d207072697a652e6c656e67746881526020017f2e0000000000000000000000000000000000000000000000000000000000000081525060400191505060405180910390fd5b60009150600090505b6009548160ff161015611222576110be858260ff168151811015156110a257fe5b9060200190602002015160ff168361137a90919063ffffffff16565b91506110d6600360095461131290919063ffffffff16565b848260ff168151811015156110e757fe5b9060200190602002015160ff161115611168576040517f08c379a000000000000000000000000000000000000000000000000000000000815260040180806020018281038252601b8152602001807f4572726f72207072697a65203e20746f74616c506c61636578332e000000000081525060200191505060405180910390fd5b6040805190810160405280868360ff1681518110151561118457fe5b9060200190602002015160ff168152602001858360ff168151811015156111a757fe5b9060200190602002015160ff16815250600160008360ff1660ff16815260200190815260200160002060008201518160000160006101000a81548160ff021916908360ff16021790555060208201518160000160016101000a81548160ff021916908360ff1602179055509050508080600101915050611081565b60648214151561129a576040517f08c379a00000000000000000000000000000000000000000000000000000000081526004018080602001828103825260168152602001807f4572726f7220746f74616c57696e20213d203130302e0000000000000000000081525060200191505060405180910390fd5b6009549250505092915050565b6112af610f45565b15156112ba57600080fd5b8060038190555050565b60075481565b60065481565b60095481565b6112de610f45565b15156112e957600080fd5b8060078190555050565b6112fb610f45565b151561130657600080fd5b61130f816113e9565b50565b60008060008414156113275760009150611349565b828402905082848281151561133857fe5b0414151561134557600080fd5b8091505b5092915050565b60008060008311151561136257600080fd5b828481151561136d57fe5b0490508091505092915050565b600080828401905083811015151561139157600080fd5b8091505092915050565b60006003546113b46064426113c490919063ffffffff16565b6001430303406001900401905090565b60008082141515156113d557600080fd5b81838115156113e057fe5b06905092915050565b600073ffffffffffffffffffffffffffffffffffffffff168173ffffffffffffffffffffffffffffffffffffffff161415151561142557600080fd5b8073ffffffffffffffffffffffffffffffffffffffff166000809054906101000a900473ffffffffffffffffffffffffffffffffffffffff1673ffffffffffffffffffffffffffffffffffffffff167f8be0079c531659141344cd1fd0a4f28419497f9722a3daafe3b4186f6b6457e060405160405180910390a3806000806101000a81548173ffffffffffffffffffffffffffffffffffffffff021916908373ffffffffffffffffffffffffffffffffffffffff160217905550505600a165627a7a723058202250872047d073e1f6e4a74e8f2fcc027a66a85ebbcea869115fe24f2cdca0d00029",
  "source": "pragma solidity ^0.4.23;\r\nimport \"./SafeMath.sol\";\r\nimport \"./Ownable.sol\";\r\n\r\n//\r\ncontract GreyhoundRacing is Ownable {\r\n\tusing SafeMath for uint;\r\n\r\n\tstruct PlaceBet{\r\n\t\tuint8 winProbability;//probability of winning 1% -> 100%\r\n\t\tuint8 prizeRate;//ex: x0, x2, x5....\r\n\t}\r\n\r\n\tstruct Bet{\r\n\t\taddress player;\r\n\t\tuint8 bet_place;\r\n\t\tuint bet_amount;\r\n\t\tuint8 result_place;\r\n\t\tuint win_amount; \r\n\t\tuint time;\r\n\t}\r\n\r\n\tmapping(uint8 => PlaceBet) public placeBets;\r\n\tmapping(uint => Bet) public bets;\r\n\r\n\tuint private randomFactor;\r\n\tuint private totalUserBets;\r\n\tuint private totalUserWin;\r\n\r\n\tuint public currentBet;\r\n\tuint public gameMaxBet;\r\n\tuint public gameMinBet;\r\n    uint public totalPlace;\r\n\r\n\tevent UserBet(address indexed player, uint8 bet_place, uint bet_amount, uint8 result_place, uint win_amount, uint id);\r\n\r\n\t//contract constructor\r\n\tconstructor() public {\r\n\t\trandomFactor = now.mod(10);\r\n\t\tgameMaxBet = 2000000000;//2000 TRX\r\n\t\tgameMinBet = 1000000;//1 TRX\r\n\t    totalPlace = 6;\r\n\t\tplaceBets[1] = PlaceBet({winProbability: 24, prizeRate: 15});//15 = x1.5\r\n\t\tplaceBets[2] = PlaceBet({winProbability: 22, prizeRate: 18});//\r\n\t\tplaceBets[3] = PlaceBet({winProbability: 18, prizeRate: 20});\r\n\t\tplaceBets[4] = PlaceBet({winProbability: 16, prizeRate: 22});//\r\n\t\tplaceBets[5] = PlaceBet({winProbability: 12, prizeRate: 25});\r\n\t\tplaceBets[6] = PlaceBet({winProbability: 8, prizeRate: 30});//x3\r\n\t\t// 6 placeBet => total winProbability = 100 (100%)\r\n\t\t//\r\n\t}\r\n\r\n\tfunction setPlaceBets(uint8[] win, uint8[] prize) public onlyOwner returns(uint){\r\n\t    totalPlace = win.length;\r\n\t    if (win.length != prize.length) revert(\"Error win.length != prize.length.\");\r\n\t    uint totalWin = 0;\r\n\t    for(uint8 i = 0; i < totalPlace; i++){\r\n\t        totalWin = totalWin.add(win[i]);\r\n\t        if (prize[i] > totalPlace.mul(3)) revert(\"Error prize > totalPlacex3.\");\r\n\t        placeBets[i] = PlaceBet({winProbability: win[i], prizeRate: prize[i]});\r\n\t    }\r\n\t    if (totalWin != 100) revert(\"Error totalWin != 100.\");\r\n\t    return totalPlace;\r\n\t}\r\n\r\n\tfunction getMaxPrizeRate() public view returns(uint8) {\r\n\t\tuint8 maxRate = 0;\r\n\t    for(uint8 i = 1; i <= totalPlace; i++){\r\n\t        if(placeBets[i].prizeRate > maxRate)maxRate = placeBets[i].prizeRate;\r\n\t    }\r\n        return maxRate;\r\n\t}\r\n\r\n\t//\r\n\tfunction userBet(uint8 betPlace, uint amount) public payable returns(uint8){\r\n\t\tif (msg.value < amount) revert(\"You not enough TRX provided.\");\r\n\t\tif (amount < gameMinBet) revert(\"You place the bet amount smaller than the minimum amount.\");\r\n\t\tif (amount > gameMaxBet) revert(\"You set the bet amount greater than the maximum amount.\");\r\n\t\tif (amount.mul(getMaxPrizeRate()).div(10) > address(this).balance) revert(\"This contract not enough TRX provided.\");\r\n        totalUserBets = totalUserBets.add(amount);\r\n\t\tuint random_number = random_uint();\r\n\t\trandomFactor = randomFactor.add(random_number.mod(10).add(1));\r\n\t\tuint result_number = random_number.mod(100);\r\n\t\t//\r\n\t\tuint8 result_place = 0;\r\n\t\tuint smallNum = 0;\r\n\t    uint bigNum = 0;\r\n\t    for(uint8 i = 1; i <= totalPlace; i++){\r\n\t        bigNum = bigNum.add(placeBets[i].winProbability);\r\n\t\t\tif(result_number >= smallNum && result_number < bigNum){\r\n\t\t\t\tresult_place = i;\r\n\t\t\t\tbreak;\r\n\t\t\t}\r\n\t\t\tsmallNum = bigNum;\r\n\t    }\r\n\t\t//\r\n\t\tuint win_amount = 0;\r\n\t\tif(result_place == betPlace){\r\n\t\t\twin_amount = amount.mul(placeBets[result_place].prizeRate).div(10);\r\n\t\t\ttotalUserWin = totalUserWin.add(win_amount);\r\n\t\t\tmsg.sender.transfer(win_amount);\r\n\t\t}\r\n\t\tbets[currentBet] = Bet({\r\n\t\t\tplayer: msg.sender,\r\n\t\t\tbet_place: betPlace,\r\n\t\t\tbet_amount: amount,\r\n\t\t\tresult_place: result_place,\r\n\t\t\twin_amount: win_amount,\r\n\t\t\ttime: now\r\n\t\t});\r\n        uint id = currentBet;\r\n\t\temit UserBet(msg.sender, betPlace, amount, result_place, win_amount, id);\r\n\t\tcurrentBet++;\r\n\t\treturn result_place;\r\n\t}\r\n\r\n\tfunction getRandomFactor() public onlyOwner view returns(uint) {\r\n        \treturn randomFactor;\r\n\t}\r\n\r\n\tfunction setRandomFactor(uint num) public onlyOwner {\r\n        \trandomFactor = num;\r\n\t}\r\n\r\n\tfunction getTotalUserBets() public onlyOwner view returns(uint) {\r\n        \treturn totalUserBets;\r\n\t}\r\n\r\n\tfunction getTotalUserWin() public onlyOwner view returns(uint) {\r\n        \treturn totalUserWin;\r\n\t}\r\n\r\n\r\n\tfunction setGameMaxBet(uint num) public onlyOwner {\r\n        \tgameMaxBet = num;\r\n\t}\r\n\r\n\tfunction setGameMinBet(uint num) public onlyOwner {\r\n        \tgameMinBet = num;\r\n\t}\r\n\t//random\r\n\tfunction random_uint() private view returns (uint256) {\r\n\t\treturn uint256(blockhash(block.number-1-block.timestamp.mod(100))) + randomFactor;\r\n\t}\r\n\r\n\t//withdraw\r\n\tfunction withdraw(uint amount) public onlyOwner {\r\n\t\trequire(amount <= address(this).balance);\r\n\t\towner().transfer(amount);\r\n\t}\r\n\r\n    function() public payable{}\r\n}\r\n",
  "sourcePath": "C:\\wamp64\\www\\Working\\Blockchain\\Tron\\GreyhoundRacing\\contracts\\GreyhoundRacing.sol",
  "compiler": {
    "name": "solc",
    "version": "0.4.24-develop.2018.8.28+commit.3ba0cdec.mod.Emscripten.clang"
  },
  "schemaVersion": "2.0.1",
  "updatedAt": "2019-01-05T01:21:54.738Z"
}